:101866006572726F7220696478203A20253464208C
:101876003A203078253258202C2030782532580DE1
:101886000A00636F6D706172655F62756666657288
:101896002066696E697368200D0A0064756D705F55
:1018A600627566666572203A202532640D0A00303C
:1018B600782532582C000D0A000D0A0D0A003078E2
:1018C60025303458202000253032582000202000B2
:0718D6002563002E000A004B
:100C99004100000041000100C10A4202DB0000429C
:100CA90002DD000062D00006000000000000000024
:100CB900000000000000000000000000000000002B
:100CC900000000000000000000000000000000001B
:100CD900000000000000000000000000000000000B
:100CE90000000000000000000000000000000000FB
:100F790000000000000000004402D6000000004408
:060F890000020000000060
:101BC900900002E0FCA3E0FDA3E0FEA3E02401FFF6
:101BD900E43EFEE43DFDE43CFC9000021207932242
:0F1C0900900002E0FCA3E0FDA3E0FEA3E0FF22B9
:070003009000021207932296
:0B138200900331EBF0A3EAF0A3E9F0C8
:10138D00E4900339F0A3F0900339F0A3F090033704
:10139D00E0FEA3E0FFA3E0FCA3E0FDC39FEC9E40B5
:1013AD000302144B900334E0FBA3E0FAA3E0F98DA4
:1013BD00828C8312059BFF900331E0FBA3E0FAA31F
:1013CD00E0F98D828C8312059B6F6061900339E08B
:1013DD00FEA3E0FF9002E2EEF0A3EFF0900331E008
:1013ED00A3E0A3E08F828E8312059B9002E4F09020
:1013FD000334E0FBA3E0FAA3E0F9900339E0A3E0A6
:10140D00F5828E8312059B9002E5F07BFF7A1879A9
:10141D00661208819002D6E0FCA3E0FDA3E0FEA3D6
:10142D00E04402FFEEEDEC9002D612079390033AE2
:10143D00E004F07006900339E004F002139A900274
:10144D00D6E0FCA3E0FDA3E0FEA3E05402FFE4FE22
:10145D00FDFCEF60047F0180027F00EF70227BFFB7
:10146D007A1879881208819002D6E0FCA3E0FDA3DA
:10147D00E0FEA3E054FDFFEEEDEC9002D6120793D3
:01148D00223C
:101A7C00900342EBF0A3EAF0A3E9F090034074FF6B
:101A8C00F5F0120651FED3E5F09400EE94004016EA
:101A9C00900342E0FBA3E475F001120651A9F0FAA1
:061AAC00ED1205C880D513
:011AB2002211
:10194B0090032EEBF0A3EAF0A3E9F0900326E0F965
:10195B00A3E0FAA3E090032BC9F0A3EAF0A3E9F00C
:10196B00E4FFFED390032AE09F900329E09E402DD5
:10197B0090032BE0FBA3E0FAA3E0F98F828E831296
:10198B00059BFD90032EE0FBA3E0FAA3E0F98F8209
:0D199B008E83ED1205DA0FBF00010E80C62D
:0119A800221C
:1017420090034EEBF0A3EAF0A3E9F0A3ECF0A3EDD3
:01175200F0A6
:10175300E4A3F0A3F07BFF7A1879A19002E2ECF006
:10176300A3EDF0120881E4900353F0A3F09003512A
:10177300E0FEA3E0FFA3E0FCA3E0FDC39FEC9E50CB
:101783004A90034EE0FBA3E0FAA3E0F98D828C8339
:1017930012059B9002E2F07BFF7A1879B51208815B
:1017A300900354E02401FF900353E03400EF540707
:1017B30070097BFF7A1879BC120881900354E00406
:1017C300F07006900353E004F080A27BFF7A18794F
:0417D300BF120881B8
:0117D70022EF
:10111800900345EBF0A3EAF0A3E9F0A3ECF0A3ED0C
:01112800F0D6
:10112900E4A3F0A3F0D3900349E09400900348E0CE
:1011390064809480500302124A7BFF7A1879C49024
:10114900034AE0FFA3E09002E2CFF0A3EFF0120818
:1011590081E490034CF0A3F090034CE0FEA3E0FF80
:10116900C39410EE64809480503B90034BE02FFFB2
:1011790090034AE03EFE900345E0FBA3E0FAA3E0BA
:10118900F98F828E8312059B9002E2F07BFF7A1819
:1011990079CD12088190034DE004F0700690034C5C
:1011A900E004F080B37BFF7A1879D3120881E490C8
:1011B900034CF0A3F090034CE0FEA3E0FFC39410AE
:1011C900EE64809480506090034BE02FFF90034AB7
:1011D900E03EFE900345E0FBA3E0FAA3E0F98F822D
:1011E9008E8312059BFFC394204015EF947F501006
:1011F9009002E2EFF07BFF7A1879D6120881800914
:101209007BFF7A1879D9120881900349E024FFF00D
:10121900900348E034FFF090034DE004F07006902D
:10122900034CE004F0808E90034BE02410F090030F
:101239004AE03400F07BFF7A1879DB120881021149
:0A1249002E7BFF7A1879DB12088172
:011253002278
:0B000E00EF1FAC0670011E4C70F622C4
:0B1A3E0090035BEBF0A3EAF0A3E9F0DB
:101A4900E4FFFE90035BE0FBA3E0FAA3E0F98F82D9
:101A59008E8312059B601B90035BE0A3E0A3E00F5C
:101A6900EFAC0670010E14F5828C8312059BF59973
:021A790080D11A
:011A7B002248
:04148E00AB07AA06F8
:1014920090031FE4F0A3740FF090031FE0FEA3E09B
:1014A200240FF58274033EF583E4F0EBAE02781F5D
:1014B200CEC313CE13D8F9FF900321EEF0A3EFF0C1
:1014C2004E600DEBF4FFEAF4FEEF2401FBE43EFA7A
:1014D200900320E024FFF090031FE034FFF07C0033
:1014E2007D0AAF03AE021205FCED2430FFE0FCA33F
:1014F200E0240FF58274033CF583EFF07C007D0A53
:10150200AF03AE021205FCAA06AB07EB4A70C1900C
:101512000321E07002A3E0601E900320E024FFF0AC
:1015220090031FE034FFF0E0FEA3E0240FF5827485
:10153200033EF583742DF090031FE0FEA3E0240F19
:0A154200F974033EFA7B01121A3E11
:01154C00227C
:10160500E4900355F0A3F0900355F0A3F090035533
:10161500E0FCA3E0FDC39468EC940140030216A727
:10162500E41202C97BD07A0F7949784012011EE491
:10163500FBFA79347843120227120FEEE4FBFA79AC
:1016450080783F12002DE4FBFAF97840120227C09A
:1016550004C005C006C0079002DBE0FCA3E0FDE482
:101665001202C9D003D002D001D00012011E12030C
:1016750002AD07AC06900356E025E0FF900355E068
:1016850033FE74062FF58274003EF583ECF0A3ED6E
:10169500F0900356E004F07006900355E004F00264
:0216A50016121B
:0116A7002220
:0C125400900355ECF0A3EDF0AB07AA06E8
:10126000A312079F00000000EA7021EB24FB701C12
:10127000A2AF9209C2AF75C7AA75C755E4F591A28E
:101280000992AF53B1F743B20843DE2053DF3F4327
:10129000DF0453DFFC90035712079F0016E36090B2
:1012A0000357E0FCA3E0FDA3E0FEA3E0FFC006C0FF
:1012B00007900355E0FEA3E0FFFBAA06E4F9F8D08F
:1012C00007D0061206A3900357120793900357E026
:1012D000FCA3E0FDA3E0FEA3E024FFFFEE34FFFE4D
:1012E000ED34FFFDEC34FFFC90035712079390039D
:1012F00057E0A3E0A3E0FFA3E09002DBCFF0A3EF71
:10130000F0900357E0FCA3E0FDA3E0FEA3E0FF782C
:10131000081207548FD1900357E0FCA3E0FDA3E02F
:10132000FEA3E0FFE48FD9A2AF9209C2AF75C7AAAE
:1013300075C755759101A20992AF9002DEE025E0D4
:10134000FF9002DDE033FE74062FF58274003EF557
:1013500083E0FCA3E0FDECF5C5EDF5CDA2AF92096D
:10136000C2AF75C7AA75C755E4F591A20992AF90AF
:1013700002DEE004F070069002DDE004F0D2DED27E
:01138000DF8D
:011381002249
:1019F400A2AF9209C2AF75C7AA75C755E4F591A203
:101A04000992AF53B3FB43B404A2AF9209C2AF75BA
:101A1400C7AA75C755F591A20992AF53B37F53B4C2
:101A24007FA2AF9209C2AF75C7AA75C755F591A237
:0A1A34000992AF53ACFE43AD01224E
:1018DD00A2AF9209C2AF75C7AA75C755759101A27E
:1018ED000992AF9002DEE025E0FF9002DDE033FECD
:1018FD0074062FF58274003EF583E0FCA3E0FDEC49
:10190D00F5C5EDF5CDA2AF9209C2AF75C7AA75C7E2
:10191D0055E4F591A20992AF9002DEE004F0700655
:10192D009002DDE004F09002DDE0B4010CA3E0B420
:0E193D006807E49002DDF0A3F0D2DED2DF22D4
:03001B00021B0DB8
:101B0D00C0E0C083C082C0D075D000C004C005C085
:101B1D0006C007C28F1218DDD007D006D005D0043D
:091B2D00D0D0D082D083D0E03288
:101BA800E4900355F0A3F0FFFE53890F43892053B7
:101BB8008EEF7FA37DA38D8D8D8BD2ABD2AFD28ECE
:011BC80022FA
:101AE100121BC9121C09E47BE87A03F9F81206A358
:101AF100AC00AD01AE02AF03E4FBFAF9F8C3120783
:0C1B0100437005A292B39292121C0922BC
:03000B000219A92E
:1019A900C0E0C0F0C083C082C0D075D000C000C004
:1019B90001C002C003C004C005C006C007C09190A1
:1019C9000000E0F58CA3E0F58AC28D121AE1D091EE
:1019D900D007D006D005D004D003D002D001D00062
:0B19E900D0D0D082D083D0F0D0E0320C
:101AB300E4900355F0A3F07D307CF85389F043891B
:101AC30001538EF7EC900000F07430A3F090000007
:0D1AD300E0F58CA3E0F58AD2A9D2AFD28C49
:011AE00022E3
:03002300021B5D60
:101B5D00C0E0C083C082C09130980AD20A9002DAE8
:101B6D00E599F0C298309905200B02C299D091D019
:061B7D0082D083D0E032AB
:10154D0090035512079F0001C200A2AF9209C2AFCE
:10155D0075C7AA75C755E4F591A20992AF53B1BFEE
:10156D0053B2BF75985043878053C4F8A2AF920908
:10157D00C2AF75C7AA75C755F591A20992AF43C4FD
:10158D0020900355E0F8A3E0F9A3E0FAA3E0FB7F78
:10159D00607EE37D167C001206A3C3E49FFFE49EEC
:1015AD00FE74019DFDE49CFC78081207548FC690D3
:1015BD000355E0F8A3E0F9A3E0FAA3E0FB7F607E1A
:1015CD00E37D167C001206A3C3E49FFFE49EFE7428
:1015DD00019DFDE49CFCEFE48FC5A2AF9209C2AF63
:1015ED0075C7AA75C755F591A20992AF43C408D224
:0715FD00ACD2AFD299D20B72
:0116040022C3
:1017D800E58720E403021865A2AF9209C2AF75C776
:1017E800AA75C755439F01A20992AF75A638E4F5BB
:1017F800A775AF04A2AF9209C2AF75C7AA75C7553E
:1018080043A401A20992AF85AE0D75A639F5A7A22A
:10181800AF9209C2AF75C7AA75C75543A401A209FB
:1018280092AF85AE0EA2AF9209C2AF75C7AA75C7AF
:1018380055539FFEA20992AF75C7AA75C755850D66
:101848008475C7AA75C755850E85A2AF9209C2AF20
:0D18580075C7AA75C755539FFEA20992AF30
:011865002260
:101B83001217D8A2AF9209C2AF75C7AA75C755E499
:101B9300F591A20992AFF5B1F5B2F5B3F5B4F5AC91
:051BA300F5ADD2AF22F8
:101BE900121B8312154D1219F47DC07C5D7F057E91
:101BF90000121254121605121AB3121BA880FE22E3
:030000000216A83D
:1016A800787FE4F6D8FD9000007FFF7E03E4F0A386
:0A16B800DFFCDEFA7581210216FD49
:1000260002036EE86480F8E933E83360110460F097
:10003600ED33EC337009E8FCE9FDEAFEEBFF220440
:1000460060DED3EB9FEA9EE99DE8C2E78CF0C2F73B
:1000560095F0400CE8CCF8E9CDF9EACEFAEBCFFB07
:1000660012033985D0F05804700320D5B3E8047024
:10007600075002B2D502037892D5EC0460F7E4CCBF
:10008600C0E0C398F8603B94186008400DD0E0FBD0
:10009600020350E4FBFAC9FC8028E830E406E4C910
:1000A600FBE4CAFCE830E305E4C9CACBFCE8540724
:1000B6006010F8C3E913F9EA13FAEB13FBEC13FC2F
:1000C600D8F130F52FC3E49CFCEF9BFFEE9AFEEDD2
:1000D60099FDD0E0FBEF4E4D4C701222DB0302037C
:1000E60075EC2CFCEF33FFEE33FEED33FDED30E720
:1000F600EB020350EF2BFFEE3AFEED39FDD0E0FBAD
:1001060050130BBB0003020378ED13FDEE13FEEF55
:0801160013FFEC13FC0203507F
:10011E00EC4D6011E8497017ED33EC3304600DE4DB
:10012E00FCFFFEFD22E933E8330470F802036E1281
:10013E00033958046009E4CC248150062850090282
:10014E000378284003020375C0E0EB4A7044B9807F
:10015E0006D0E0FB020364EF4E701CBD8008EBFF7F
:10016E00EAFEE9FD80EBE98DF0A4FEE5F002020760
:10017E00E9CDF9EAFEEBFFEF89F0A4FCE5F0CE89BC
:10018E00F0A42EFFE435F0CD89F0A42DFEE435F079
:10019E008067EF4E7005BD80D780C3EF8BF0A4ACA7
:1001AE00F0EE8BF0A42CFCE435F0F8EF8AF0A42CE2
:1001BE00E5F038FCE433CB8DF0A42CFCE5F03BF8F5
:1001CE00EE8AF0A42CFCE5F038F8E433CF89F0A4E5
:1001DE002CFCE5F038CF3400CE89F0A42FFFE5F0EB
:1001EE003EFEE433C98DF0A42EFEE5F039CD8AF043
:1001FE00A42FFFE5F03EFEE43DFD33D0E0FB5007BB
:10020E000BBB000F020378EC2CFCEF33FFEE33FE3A
:06021E00ED33FD02035068
:10022400020378EC5D046005E85904700302036E70
:10023400120339580460F6EC4860F2EC7004FDFED9
:10024400FF22C860DB2481C85009C39860025006AD
:100254000203759850CAF582E9294B4A7005AB82AE
:1002640002036475F0007C1A7880C3EF9BEE9AED6C
:1002740099400DC3EF9BFFEE9AFEED99FDE842F025
:10028400DC23ACF0D0E0FFD0E0FED0E0FDAB822078
:10029400E7101BEB60BAEC2CFCEF33FFEE33FEED02
:1002A40033FD020350E803F830E705C0F075F000B1
:1002B400EF2FFFEE33FEED33FD40B830E7C280AAE6
:1002C40075F020800E75F010800575F0087D007EB5
:1002D400007F003392D530D503120735EC3340103C
:1002E400EF33FFEE33FEED33FDEC33FCD5F0ED22BE
:0E02F400E5F0247EA2D513CC92E7CDCEFF22FA
:10030200EDD2E7CD33EC3392D524814006E4FFFEF3
:10031200FDFC22FCE4CFCECDCC24E0501174FF8052
:10032200EDC3CC13CCCD13CDCE13CECF13CF0470EF
:07033200F030D5DE020735B3
:10081600E50824E2F582E43402F583E00508229037
:1008260002DF3007039002E2E475F0011207D002FE
:1008360005822000E97F2ED2008018EF540F249005
:10084600D43440D4FF30040BEF24BFB41A00500355
:100856002461FFE50960021509050CE50C70020527
:100866000B30070E9002DFE475F0011207D0EF029D
:1008760005C8021B367403D2078003E4C207F508D5
:100886009002DF1207E7E4F509F50BF50CE50960C0
:10089600077F2012085980F5750AFFC201C200C2FF
:1008A60002C203C205C206C208120825FF700D3037
:1008B60007057F0012086AAF0CAE0B22B4255FC293
:1008C600D5C204120825FF24D0B40A00501A75F0C8
:1008D6000A780930D50508B6FF0106C6A426F62013
:1008E600D5047002D20380D924CFB41A00EF500485
:1008F600C2E5D204020B5CD20180C6D20080C0D20F
:100906000280BCD2D580BAD20580B47F20120859A5
:100916002002077401B5090040F1120816FF1208FB
:1009260059020893D208D2068095120816FB1208BF
:1009360016FA120816F94A4B7006795A7A0C7BFF9A
:1009460020022EE509602A7E008E8275830012053C
:100956009B60060EEE650A70F0C2D5EBC0E0EAC0F9
:10096600E0E9C0E0EE120BBDD0E0F9D0E0FAD0E04D
:10097600FB120582FF60AAEBC0E0EAC0E0E9C0E036
:10098600120859D0E02401F9D0E03400FAD0E0FB97
:10099600E50A0460DCD50AD98087D20280A2120B50
:1009A6009F60F7E50A700104120383A90A600DE54A
:1009B6000A600914F50A120C47EF60F3EA30E70201
:1009C600F404C3995079EAF4250A0430E701E404F3
:1009D600F50A800D120B9F60C1EA050A250A12036B
:1009E60083EA90030EF030E701E4250A04D50A04F1
:1009F60020050114120BBDE4C0E0120C4790030E53
:100A0600E0601320E70714F0120841802204F0D0BA
:100A1600E014C0E07F00120841E50A6007120838BA
:100A2600150A800B300503120838D0E0020893D06F
:100A3600E00480C4120B9F609EE50A0412038390B3
:100A4600030EEAF0E50A2005026001042404120BF5
:010A5600BDE2
:100A570074FF04C0E0120C47120841E50A200502A2
:100A67006003120838D0E0B50AE87F4512084B90BA
:100A7700030EE07F2B30E7047F2DF404C0E012085B
:100A870059D0E075F00A84C0F0120842D0E012088D
:100A970042020893791080027908C206C2088008CA
:100AA700D2D5790A8004790AC2D5E50A047002F51D
:100AB7000AE4FAFDFEFF120816FC7B082001131258
:100AC7000816FD7B1030000A120816FE120816FFE2
:100AD7007B20EC3382D592D55013C3E43000069FB8
:100AE700FFE49EFEE42001039DFDE49CFCE4CBF8BB
:100AF700C201EC700CCFCECDCCE824F8F870F380AF
:100B070017C3EF33FFEE33FEED33FDEC33FCEB336E
:100B1700FB994002FB0FD8E9EB300105F8D0E0C4A0
:100B270048B201C0E00AEC4D4E4F78207B0070C2FE
:100B3700EAB50A0040BCC0E0120BBFD0F0D0E020FD
:100B47000104C4C0E0C4B201C0F0120842D0F0D51D
:100B5700F0EB0208931207F00930530A9B5809017A
:100B67004C08FD420A9F4F0AA7440AA749091643A2
:100B77000AAD5509DA460A3A4509A4470C7A5009DD
:100B8700052D09092E092C2B090D23092A200C6391
:100B97002A08C54800000924E50AB4FF03750A06B8
:100BA700120816FC120816FD120816FE120816FF88
:100BB7009003070203C0790AA2D520031430050960
:100BC700B910020404B9080104A2D5200602500195
:100BD700042002689202B509005034C0E07F20303B
:100BE70003197F30A20272067205500F120C16C24B
:100BF70002C206C205C2087F30800F300503E9C074
:100C0700E0120859300503D0E0F9D0E0B509CC303F
:100C170005177F30B9100C1208597F583004077F29
:100C2700788003B908031208593002057F2D02089E
:100C3700597F202008F87F2B2006F322920280CFCD
:100C47007F00B40700500B2407F582E43403F583D3
:100C5700E0FF22286E756C6C2900D201120816304D
:100C670001F8C201780930D50108F60208C52D50F0
:100C77004349581208162403B405004001E4900CB8
:100C8700759312084A743A12084AD2037509040286
:020C97000A9BB6
:100F90003A70FA83BCAAE9E43E81E0F8BF9DE9E635
:100FA0003F80000039283C1ABB9969663DA335E3B0
:100FB000BF255DE73FC90FDB418DDBCCC44936EE71
:100FC00045C9913FC5B0F83D3F800000C317F534D7
:100FD000452FFA73C60AFDDD12109904A2E1920CA6
:100FE0001420E015900F9074041204C58030121084
:100FF0009930E102B20C20E0EBA883A9829003575C
:1010000012079389828883900FA474041204C58503
:1010100082F090035712077785F08212011EED4C83
:101020006007300C04EC6480FC22121099C0E0A828
:1010300083A98290035712079389828883900FC8EF
:1010400074031204C58582F090035712077785F068
:101050008212011E900357E0CCF0A3E0CDF0A3E094
:10106000CEF0A3E0CFF0900FB874031204C5D08285
:101070008582F090035712077785F082E58230E091
:1010800007120227B20C8096EFCBFFEECAFEEDC925
:10109000FDECC8FC1202278085ED33EC547FCC3385
:1010A000920C24605007D0E0D0E002036E7B837A7C
:1010B000F97922783E12011EEDF933ECF8332481E0
:1010C0005011EFFBEEFA1203021202C4ECB2E7FC7D
:1010D00012002DED33EC33602F2403F8C313FCED25
:1010E00092E7FDE82481E4501FECF8EDF9EEFAEF09
:1010F000FB120302EF04C2E0FCF5821202CEECB256
:10110000E7FC12002DE58203FAED33EC336007149F
:0811100013FCED92E7FDEA2259
:10033900E9D2E7C933E833F892D5EDD2E7CD33EC0A
:0703490033FC5002B2D52283
:10035000EC30E7100FBF000C0EBE00080DBD00040E
:100360000BEB6014A2D5EB13FCED92E7FD2274FFBA
:10037000FCFDFEFF22E480F8A2D574FF13FC7D8013
:03038000E480EF27
:10038300F920E73624F950037907E4F42402FBE566
:1003930082158270021583DBF6E024FB501BE960B3
:1003A30014E4F0E582158270021583E004F0B40AC8
:0D03B30008E4F0D9EE7401F00A22C2D52250
:1003C000ED33EC3392D5FA602AB4FF33EDC2E77B0C
:1003D000FF60067A0379E5E4227A0379EE20D504FA
:1003E0007A0379E9224E614E002B494E46002D4991
:1003F0004E4600E47A08F0A3DAFC7B00740722C0C2
:1004000083C082ECC0E0EDC0E0EEC0E0EFC0E0EA07
:1004100075F010A4CAABF075F04DA42BFBE435F0D9
:10042000FCEA2410FAEB34C5FBEC34D9FCEDC2E74E
:10043000FF75F056A4F42411C5F0F434C58FF0A470
:100440002AE5F03BE43CF020E714120542D0E0FF3F
:10045000D0E0FED0E0FDD0E0FC1202278014F404CE
:10046000120542D0E0FFD0E0FED0E0FDD0E0FC126B
:10047000011ED082D083E0FAEDD2E7CD33EC3324F5
:1004800082FBE4C3CF33CFCE33CECD33CD33DBF3DA
:100490007B0775F00A846004F0A31B0AE5F0F0A363
:1004A0008FF0740AA4FFACF08EF0740AA42CFEAC9A
:1004B000F050010C8DF0740AA42CFDE435F0F0A38B
:0504C000DBDE740722E1
:1004C500C0E0EFFBEEFAEDF9ECF812011ED0E0F515
:1004D500F0EFFBEEFAEDF9ECF8120767A3A3A3A37F
:1004E500E8C0E0E9C0E0EAC0E0EBC0E0C0F012011E
:1004F5001E120783A3A3A3A312002DD0F0D0E0FB07
:0D050500D0E0FAD0E0F9D0E0F8D5F0D42233
:100512003F8000004120000042C80000447A0000F1
:10052200461C400047C35000497424004B18968073
:100532004CBEBC205A0E1BCA6753C21C749DC5AE6A
:10054200FB60065407601C2323120570EB543860CD
:100552000912055C12056B12011EECF8EDF9EEFAB8
:10056200EFCB22EB12056B80F1543803241C90056B
:1005720012FE93FC0EEE93FD0EEE930ECE93FF222F
:1016C200021BE9E493A3F8E493A34003F68001F23A
:1016D20008DFF48029E493A3F85407240CC8C33329
:1016E200C4540F4420C8834004F456800146F6DFF8
:1016F200E4800B0102040810204080900C99E47EE3
:10170200019360BCA3FF543F30E509541FFEE493EC
:10171200A360010ECF54C025E060A840B8E493A3B3
:10172200FAE493A3F8E493A3C8C582C8CAC583CADE
:10173200F0A3C8C582C8CAC583CADFE9DEE780BE96
:010F8F000061
:10058200BB010689828A83E0225002E722BBFE0277
:09059200E32289828A83E49322AA
:10059B00BB010CE58229F582E5833AF583E0225015
:1005AB0006E92582F8E622BBFE06E92582F8E2225F
:0D05BB00E58229F582E5833AF583E4932279
:1005C800BB010689828A83F0225002F722BBFE0112
:0205D800F3220C
:1005DA00F8BB010DE58229F582E5833AF583E8F057
:1005EA00225006E92582C8F622BBFE05E92582C803
:0205FA00F222EB
:1005FC00BC000BBE0029EF8DF084FFADF022E4CCE3
:10060C00F875F008EF2FFFEE33FEEC33FCEE9DECAB
:10061C00984005FCEE9DFE0FD5F0E9E4CEFD22EDF1
:10062C00F8F5F0EE8420D21CFEADF075F008EF2F3B
:10063C00FFED33FD4007985006D5F0F222C398FD2C
:05064C000FD5F0EA22C9
:10065100A3F8E0C5F025F0F0E5821582700215835C
:06066100E0C838F0E822B9
:1006670075F008758200EF2FFFEE33FECD33CDCC4A
:1006770033CCC58233C5829BED9AEC99E5829840CD
:100687000CF582EE9BFEED9AFDEC99FC0FD5F0D6AA
:10069700E4CEFBE4CDFAE4CCF9A88222B800C1B9D4
:1006A7000059BA002DEC8BF084CFCECDFCE5F0CB12
:1006B700F97818EF2FFFEE33FEED33FDEC33FCEB4B
:1006C70033FB10D703994004EB99FB0FD8E5E4F906
:1006D700FA227818EF2FFFEE33FEED33FDEC33FCF3
:1006E700C933C910D7059BE99A4007EC9BFCE99AE7
:1006F700F90FD8E0E4C9FAE4CCFB2275F010EF2F2C
:10070700FFEE33FEED33FDCC33CCC833C810D7072B
:100717009BEC9AE899400AED9BFDEC9AFCE899F866
:0E0727000FD5F0DAE4CDFBE4CCFAE4C8F922F9
:0E073500C3E49FFFE49EFEE49DFDE49CFC22D5
:10074300EB9FF5F0EA9E42F0E99D42F0E89C45F00C
:010753002283
:10075400E8600FECC313FCED13FDEE13FEEF13FF83
:03076400D8F122A7
:10076700E493FC740193FD740293FE740393FF22D8
:0C077700E0F8A3E0F9A3E0FAA3E0FB2205
:10078300E493F8740193F9740293FA740393FB22CC
:0C079300ECF0A3EDF0A3EEF0A3EFF022D9
:10079F00A8828583F0D083D0821207B61207B612D3
:1007AF0007B61207B6E473E493A3C583C5F0C583F8
:1007BF00C8C582C8F0A3C583C5F0C583C8C582C8A4
:0107CF002207
:1007D000F8E0FBA3A3E0F925F0F0E58215827002B2
:0707E0001583E0FA38F02256
:0907E700EBF0A3EAF0A3E9F02213
:1007F000D083D082F8E4937012740193700DA3A398
:1008000093F8740193F5828883E4737402936860AB
:06081000EFA3A3A380DFAB
:101B3600EFB40A07740D121B41740A309811A89964
:101B4600B8130CC2983098FDA899C298B811F6300F
:071B560099FDC299F59922E7
:00000001FF
